:10000000BEC30000EDC30000EBC30000E9C3000065
:10001000E7C30000E5C30000E3C30000E1C3000044
:10002000DFC30000DDC30000DBC30000D9C3000054
:10003000D7C30000D5C30000D3C30000D1C3000064
:10004000CFC30000CDC30000CBC30000C9C3000074
:10005000C7C30000C5C30000C3C300000C94E00C7C
:10006000BFC300000C941E090C946009B9C30000C2
:10007000B7C30000B5C30000B3C30000B1C30000A4
:10008000AFC30000ADC30000ABC30000A9C30000B4
:100090000C94D9090C941B0AA3C300000C94E2270A
:1000A0009FC300009DC300009BC3000099C30000D4
:1000B00097C3000095C3000093C3000091C30000E4
:1000C0008FC300008DC300008BC3000089C30000F4
:1000D00087C3000085C3000083C3000081C3000004
:1000E0007FC30000F80DFB0DEA0DEE0DF40D320E8E
:1000F000FF0D030E090E0D0E110E170E1B0E1F0E17
:10010000320E250E290E2D0E5465787420202020E5
:1001100020202020202020202020202020202020DF
:10012000200053637265656E2066696C6C20202028
:1001300020202020202020202020200042656E63E7
:10014000686D61726B20202020202020202020203C
:10015000202020202054696D6520286D6963726F0E
:100160007365636F6E647329005061696E7421005A
:1001700000000A0B02090C0D0E0807030401000021
:10018000000000000000000000000000000000006F
:10019000000000000000000000000000121110002C
:1001A000000000000000000000000000000000004F
:1001B000000000000000010210202008081020406C
:1001C000102040800201020108040201010204081B
:1001D00010204080804020100804020180040201A9
:1001E00080402010080402010804020101020408F2
:1001F00010204080010204081020408005050505FC
:10020000070508080808020202020A0A080804048E
:1002100004040101010101010101030303030303BC
:100220000303040707070C0C0C0C0C0C0C0C02024B
:10023000020206060606060606060B0B0B0B0B0B48
:100240000B0B00002200250028002B002E0031009F
:10025000340002010000050108010B01000021002B
:10026000240027002A002D00300033000101000087
:10027000040107010A0100000000003E5B4F5B3EE5
:100280003E6B4F6B3E1C3E7C3E1C183C7E3C181C5B
:10029000577D571C1C5E7F5E1C00183C1800FFE752
:1002A000C3E7FF0018241800FFE7DBE7FF30483AF8
:1002B000060E2629792926407F050507407F05255A
:1002C0003F5A3CE73C5A7F3E1C1C08081C1C3E7FE2
:1002D00014227F22145F5F005F5F06097F017F00A9
:1002E0006689956A606060606094A2FFA2940804C9
:1002F0007E040810207E201008082A1C08081C2AEA
:1003000008081E101010100C1E0C1E0C30383E3841
:1003100030060E3E0E06000000000000005F0000E8
:100320000007000700147F147F14242A7F2A122359
:100330001308646236495620500008070300001C69
:100340002241000041221C002A1C7F1C2A08083E72
:100350000808008070300008080808080000606085
:100360000020100804023E5149453E00427F4000F3
:1003700072494949462141494D331814127F1027CB
:10038000454545393C4A494931412111090736491A
:10039000494936464949291E0000140000004034EE
:1003A00000000008142241141414141400412214F3
:1003B0000802015909063E415D594E7C1211127C1A
:1003C0007F494949363E414141227F4141413E7F7B
:1003D000494949417F090909013E414151737F085B
:1003E00008087F00417F41002040413F017F081401
:1003F00022417F404040407F021C027F7F04081062
:100400007F3E4141413E7F090909063E4151215E3F
:100410007F09192946264949493203017F01033FD3
:100420004040403F1F2040201F3F4038403F631462
:1004300008146303047804036159494D43007F4164
:1004400041410204081020004141417F04020102A1
:1004500004404040404000030708002054547840C6
:100460007F284444383844444428384444287F385A
:100470005454541800087E090218A4A49C787F08DC
:1004800004047800447D40002040403D007F102857
:10049000440000417F40007C047804787C08040418
:1004A000783844444438FC1824241818242418FCB0
:1004B0007C08040408485454542404043F44243C55
:1004C0004040207C1C2040201C3C4030403C4428C4
:1004D0001028444C9090907C4464544C440008365E
:1004E00041000000770000004136080002010204CC
:1004F000023C2623263C1EA1A161123A4040207AEC
:100500003854545559215555794122545478422133
:100510005554784020545579400C1E52721239556A
:100520005555593954545459395554545800004567
:100530007C410002457D420001457C407D12111244
:100540007DF0282528F07C545545002054547C54D7
:100550007C0A097F4932494949323A4444443A3293
:100560004A4848303A4141217A3A42402078009D39
:10057000A0A07D3D4242423D3D4040403D3C24FFE5
:100580002424487E4943662B2FFC2F2BFF0929F694
:1005900020C0887E090320545479410000447D41E5
:1005A0003048484A32384040227A007A0A0A727D3E
:1005B0000D19317D2629292F282629292926304859
:1005C0004D4020380808080808080808382F10C8C7
:1005D000ACBA2F102834FA00007B000008142A144B
:1005E0002222142A14085500550055AA55AA55AAC6
:1005F000FF55FF55FF000000FF00101010FF001412
:100600001414FF001010FF00FF1010F010F014146D
:1006100014FC001414F700FF0000FF00FF1414F492
:1006200004FC141417101F10101F101F1414141F93
:1006300000101010F0000000001F101010101F100C
:10064000101010F010000000FF101010101010100B
:100650001010FF10000000FF140000FF00FF00005A
:100660001F10170000FC04F414141710171414F4CE
:1006700004F40000FF00F714141414141414F70009
:10068000F7141414171410101F101F141414F4145A
:100690001010F010F000001F101F0000001F1400C9
:1006A0000000FC140000F010F01010FF10FF1414F4
:1006B00014FF141010101F00000000F010FFFFFFC7
:1006C000FFFFF0F0F0F0F0FFFFFF0000000000FF80
:1006D000FF0F0F0F0F0F3844443844FC4A4A4A3486
:1006E0007E02020606027E027E026355494163389D
:1006F00044443C04407E201E2006027E020299A54E
:10070000E7A5991C2A492A1C4C7201724C304A4DAB
:100710004D303048784830BC625A463D3E494949E0
:10072000007E0101017E2A2A2A2A2A44445F444489
:1007300040514A444040444A51400000FF0103E018
:1007400080FF000008086B6B083612362436060F4F
:10075000090F06000018180000001010003040FFBC
:100760000101001F01011E00191D1712003C3C3C35
:100770003C0000000000F10392094D0A45271124B6
:100780001FBECFEFD1E2DEBFCDBF00E00CBF13E054
:10079000A0E0B2E0E8EFF6E500E00BBF02C0079092
:1007A0000D92A43BB107D9F729E0A4EBB3E001C057
:1007B0001D92AD38B207E1F717E0CEE7D7E000E0D1
:1007C00006C022970109FE010BBF0E94722BC6379B
:1007D000D10780E00807A9F70E94D60C0C947A2B69
:1007E0000FCC8F92AF92CF92EF92FF920F939CE239
:1007F000E92EFF24F39407E028E347E366E08EEF59
:1008000093E00E9496231F921F9283E08F9327E02C
:10081000822E36E0A32E45E0C42E54E0E52E00E003
:1008200021E042E067E281EE93E00E9497250F907D
:100830000F900F9086EB93E00F91FF90EF90CF9089
:10084000AF908F900C94BD20CF92DF92EF92FF92E9
:100850000E942A0D6B017C0160E070E086EB93E062
:100860000E94762060E078EF86EB93E00E9476208D
:1008700060EE77E086EB93E00E9476206FE170E017
:1008800086EB93E00E94762060E070E086EB93E0D8
:100890000E9476200E942A0D6C197D098E099F09FD
:1008A000FF90EF90DF90CF900895CF92DF92EF927C
:1008B000FF9260E070E086EB93E00E9476200E9459
:1008C0002A0D6B017C0140E050E060E070E086EBB7
:1008D00093E00E94DA116FEF7FEF86EB93E00E94C6
:1008E000E61161E086EB93E00E94E01164E072E0C3
:1008F00086EB93E097D660EE7FEF86EB93E00E9465
:10090000E61162E086EB93E00E94E01122E030E025
:100910004CEE51E56AE974E486EB93E00E94C30C67
:1009200060E078EF86EB93E00E94E61163E086EBEF
:1009300093E00E94E01120E130E04FEE5EEB6DEAC3
:100940007EED86EB93E029D786EB93E058D660EEF8
:1009500077E086EB93E00E94E61165E086EB93E09A
:100960000E94E01161E172E086EB93E05BD662E009
:1009700086EB93E00E94E01167E172E086EB93E082
:1009800051D661E086EB93E00E94E01167E272E0ED
:1009900086EB93E047D662E472E086EB93E042D6C2
:1009A0006DE572E086EB93E03DD669E772E086EB99
:1009B00093E038D66DE872E086EB93E033D660EAD8
:1009C00072E086EB93E02ED66AEB72E086EB93E062
:1009D00029D661E086EB93E00E94E01160E078EFB9
:1009E00086EB93E00E94E61167E272E086EB93E00B
:1009F00019D662E472E086EB93E014D66DE572E0FE
:100A000086EB93E00FD669E772E086EB93E00AD6B7
:100A10006DE872E086EB93E005D660EA72E086EB63
:100A200093E000D66AEB72E086EB93E0FBD561E0E1
:100A300086EB93E00E94E0116FE170E086EB93E0BB
:100A40000E94E61167E272E086EB93E0EBD562E488
:100A500072E086EB93E0E6D56DE572E086EB93E01D
:100A6000E1D569E772E086EB93E0DCD56DE872E0F2
:100A700086EB93E0D7D560EA72E086EB93E0D2D5BF
:100A80006AEB72E086EB93E0CDD561E086EB93E014
:100A90000E94E01160EE7FEF86EB93E00E94E6118A
:100AA00067E272E086EB93E0BDD562E472E086EB2C
:100AB00093E0B8D56DE572E086EB93E0B3D569E7D6
:100AC00072E086EB93E0AED56DE872E086EB93E0E2
:100AD000A9D560EA72E086EB93E0A4D56AEB72E0F8
:100AE00086EB93E09FD567E272E086EB93E09AD5C0
:100AF00062E472E086EB93E095D56DE572E086EBFB
:100B000093E090D569E772E086EB93E08BD56DE8D2
:100B100072E086EB93E086D560EA72E086EB93E0C4
:100B200081D56AEB72E086EB93E07CD567E272E0F8
:100B300086EB93E077D562E472E086EB93E072D5C2
:100B40006DE572E086EB93E06DD569E772E086EBC8
:100B500093E068D56DE872E086EB93E063D560EAD8
:100B600072E086EB93E05ED56AEB72E086EB93E091
:100B700059D567E272E086EB93E054D562E472E007
:100B800086EB93E04FD56DE572E086EB93E04AD5B6
:100B900069E772E086EB93E045D56DE872E086EB9D
:100BA00093E040D560EA72E086EB93E03BD56AEBD8
:100BB00072E086EB93E036D54DD76C197D098E092E
:100BC0009F09FF90EF90DF90CF900895EF92FF92F2
:100BD0000F931F93CF93DF9326E040E052EC61E048
:100BE00070E086E094E0C8D226E040E052EC61E09C
:100BF00070E085E696E0C0D269E671E086E094E0B8
:100C000001D586EB93E00E946F1665E273E986EBEF
:100C100093E00E942C2360E070E086EB93E00E945A
:100C2000762060EE7FEF86EB93E00E94E61162E0B3
:100C300086EB93E00E94E0116AEC72E086EB93E0B1
:100C4000F1D46CE371E086E094E0DCD462E271E020
:100C500086E094E0A7D4F8DDAB01BC012AE030E0E7
:100C600086E094E09AD568EC70E080E090E015D7DB
:100C700068E071E086E094E095D417DEAB01BC013A
:100C80002AE030E086E094E088D568E572E080E014
:100C900090E003D726E040E052EC61E070E086E0AF
:100CA00094E06AD220E044E064E181EE93E00E94A7
:100CB0001B26C3E0D0E081EE93E00E94B2236AEFEE
:100CC00070E080E090E0E9D681EE93E00E94BA23E4
:100CD0006AEF70E080E090E0E0D6219761F781EE66
:100CE00093E00E94B22340E060E081EE93E00E9436
:100CF000DA2360EF72E081EE93E079D468EE73E07E
:100D000080E090E0CAD641E060E081EE93E00E948E
:100D1000DA236EEF72E081EE93E069D468EE73E05F
:100D200080E090E0BAD681EE93E00E94CA2340E0D2
:100D300060E081EE93E00E94DA236FE073E081EEE1
:100D400093E055D441E060E081EE93E00E94DA2325
:100D50006EE173E081EE93E04AD460E47FE180E0ED
:100D600090E09BD660E070E086EB93E00E947620F6
:100D7000E12CA8EFFA2E08E210E028E230E040E093
:100D800050E060E070E086EB93E00E94FF1FB0EE61
:100D9000EB2EFF24FA9428E230E040E050E068E2D5
:100DA00070E086EB93E00E94FF1FC0EEEC2EC7E0E0
:100DB000FC2E28E230E040E050E060E570E086EB99
:100DC00093E00E94FF1FEE24EA94D7E0FD2E28E274
:100DD00030E040E050E068E770E086EB93E00E948E
:100DE000FF1F8FE1E82EF12C28E230E040E050E0D8
:100DF00060EA70E086EB93E00E94FF1F9FE1E92E1E
:100E000098EFF92E28E230E040E050E068EC70E026
:100E100086EB93E00E94FF1FE091B603F091B703C9
:100E20000484F585E02DEE24EA94FE2C28E230E0DF
:100E300040E050E060E070E086EB93E0199580E0E0
:100E400098EF9093B5038093B40361E08DE0DF9158
:100E5000CF911F910F91FF90EF9005C7EF92FF92F6
:100E60000F931F9386E094E06FD0892BA9F485E659
:100E700096E06AD0892B09F03FC044C086E094E038
:100E800080D0182F8C3779F0682F81EE93E0B0D3A3
:100E9000612F86EB93E0ACD386E094E055D0181632
:100EA000190664F3E4CF81EE93E00E94CA2386EB37
:100EB00093E00E9403128C0186EB93E00E94FF11E5
:100EC00008521109E12CF12C9C0148E250E060E04D
:100ED00070E086EB93E00E94FF1FDECF85E696E090
:100EE00050D0182F8C37A9F0682F81EE93E080D373
:100EF000612F86EB93E07CD385E696E025D018162B
:100F0000190664F361E08DE01F910F91FF90EF905F
:100F1000E3C681EE93E00E94CA2386EB93E00E9431
:100F200003128C0186EB93E00E94FF110852110915
:100F3000E12CF12C9C0148E250E060E070E086EB8F
:100F400093E00E94FF1FD8CFFC01218D328D838D4D
:100F5000948D281B390BC90191700895FC01218DD6
:100F6000328D838D948D2817390741F0A38DB48D70
:100F7000AE0FBF1F5F968C9190E008958FEF9FEFAB
:100F80000895FC01218D328D838D948D28173907AA
:100F900079F0A38DB48DAE0FBF1F5F968C91238D1A
:100FA000348D2F5F3F4F3170348F238F90E0089541
:100FB0008FEF9FEF089589E899E0892B39F080E061
:100FC00090E0892B19F0A5D1811124C084E49AE026
:100FD000892B39F080E090E0892B19F055D28111EE
:100FE0001CC080E090E0892B41F080E090E0892BEC
:100FF00021F00E940000811113C080E090E0892B55
:10100000A1F080E090E0892B81F00E940000811126
:101010000AC008950E940000D9CF0E940000E1CFCD
:101020000E940000EACF0C9400000895FC01868D18
:10103000DF01A80FB11DA15EBD4F2C91868D90E000
:1010400001968F739927868FA689B7892C93A089DB
:10105000B1898C9180648C93958D868D981306C090
:101060000288F389E02D80818F7D80830895CF935E
:10107000DF93EC01888D8823C1F0EA89FB898081A8
:1010800085FD05C0A889B9898C9186FD0EC00FB673
:1010900007FCF5CF808185FFF2CFA889B9898C91B3
:1010A00085FFEDCFCE01C2DFE8CFDF91CF9108956C
:1010B000CF92DF92FF920F931F93CF93DF931F92F4
:1010C000CDB7DEB76C0181E0D60158968C93589766
:1010D0005D969C915D975E968C915E97981307C084
:1010E0005096ED91FC915197808185FD2DC0F601C0
:1010F000058D10E00F5F1F4F0F731127F02EF601C3
:10110000868DF81210C00FB607FCF9CFD6015096A5
:10111000ED91FC915197808185FFF1CFC6016983E4
:1011200085DF6981ECCF858DE80FF11DE15EFD4F14
:101130006083D6015D960C935D975296ED91FC917C
:101140005397808180620CC0D6015696ED91FC9138
:10115000579760835096ED91FC9151978081806400
:10116000808381E090E00F90DF91CF911F910F91EC
:10117000FF90DF90CF900895BF92CF92DF92EF92D1
:10118000FF92CF93DF93EC016A017B01B22EE889D5
:10119000F98982E08083411581EE58076105710568
:1011A000A1F060E079E08DE390E0A70196010E9454
:1011B0002F2B2150310941095109569547953795F3
:1011C0002795211580E1380798F0E889F989108280
:1011D00060E874E88EE190E0A70196010E942F2B51
:1011E0002150310941095109569547953795279561
:1011F000EC85FD853083EE85FF852083188EEC8994
:10120000FD89B082EA89FB89808180618083EA89D7
:10121000FB89808188608083EA89FB89808180687E
:101220008083EA89FB8980818F7D8083DF91CF91E4
:10123000FF90EF90DF90CF90BF9008951F920F9294
:101240000FB60F9211240BB60F922F933F934F932B
:101250008F939F93EF93FF93E0911604F0911704FF
:101260008081E0911C04F0911D0482FD1AC0408130
:1012700080911F0490912004019691702091210487
:10128000309122048217930769F0E0911F04F091D6
:101290002004EA5FFB4F478F9093200480931F0444
:1012A00001C08081FF91EF919F918F914F913F916C
:1012B0002F910F900BBE0F900FBE0F901F9018959F
:1012C0001F920F920FB60F9211240BB60F922F930D
:1012D0003F934F935F936F937F938F939F93AF93BE
:1012E000BF93EF93FF9386E094E0A0DEFF91EF9130
:1012F000BF91AF919F918F917F916F915F914F912E
:101300003F912F910F900BBE0F900FBE0F901F902B
:10131000189586E094E018DE21E0892B09F420E09E
:10132000822F0895109209041092080488EE93E029
:10133000A0E0B0E080930A0490930B04A0930C0407
:10134000B0930D0488E393E0909307048093060420
:1013500085EC90E0909313048093120484EC90E069
:10136000909315048093140480EC90E090931704FC
:101370008093160481EC90E09093190480931804F4
:1013800082EC90E090931B0480931A0486EC90E02A
:1013900090931D0480931C041092200410921F044B
:1013A000109222041092210410922304109224041B
:1013B00008951F920F920FB60F9211240BB60F9241
:1013C0002F933F934F938F939F93EF93FF93E091CE
:1013D0007506F09176068081E0917B06F0917C069F
:1013E00082FD1AC0408180917E0690917F06019611
:1013F000917020918006309181068217930769F0E1
:10140000E0917E06F0917F06EB59F94F478F90935C
:101410007F0680937E0601C08081FF91EF919F91AE
:101420008F914F913F912F910F900BBE0F900FBE58
:101430000F901F9018951F920F920FB60F921124C4
:101440000BB60F922F933F934F935F936F937F93BE
:101450008F939F93AF93BF93EF93FF9385E696E0AF
:10146000E5DDFF91EF91BF91AF919F918F917F91BA
:101470006F915F914F913F912F910F900BBE0F9005
:101480000FBE0F901F90189585E696E05DDD21E078
:10149000892B09F420E0822F08951092680610929B
:1014A000670688EE93E0A0E0B0E080936906909331
:1014B0006A06A0936B06B0936C0688E393E0909362
:1014C0006606809365068DEC90E09093720680939B
:1014D00071068CEC90E0909374068093730688EC10
:1014E00090E0909376068093750689EC90E0909357
:1014F0007806809377068AEC90E090937A06809342
:1015000079068EEC90E090937C0680937B06109297
:101510007F0610927E06109281061092800610922D
:101520008206109283060895CF92DF92EF92FF9287
:101530000F931F93CF93DF936C017A01EB01E60EBB
:10154000F71E00E010E0CE15DF0561F06991D601CD
:10155000ED91FC910190F081E02DC6011995080FE5
:10156000191FF1CFC801DF91CF911F910F91FF900B
:10157000EF90DF90CF9008956115710581F0DB0148
:101580000D900020E9F7AD0141505109461B570B62
:10159000DC01ED91FC910280F381E02D199480E053
:1015A00090E00895EF92FF920F931F93CF93DF93F4
:1015B0008C01FB01C0E0D0E064917F018FEFE81A5D
:1015C000F80A662361F0D801ED91FC910190F08159
:1015D000E02DC8011995C80FD91FF701EDCFCE0135
:1015E000DF91CF911F910F91FF90EF900895C4CF9D
:1015F000DC01ED91FC910190F081E02D199464E4FF
:1016000073E0BACF0F931F93CF93DF93EC01CADF40
:101610008C01CE01F4DF800F911FDF91CF911F91DC
:101620000F9108950F931F93CF93DF93EC01A4DFE5
:101630008C01CE01E4DF800F911FDF91CF911F91CC
:101640000F9108958F929F92AF92BF92CF92DF92A7
:10165000EF92FF920F931F93CF93DF93CDB7DEB737
:10166000A1970FB6F894DEBF0FBECDBF7C01C42E8C
:10167000E52FCB01D22E19A221E02D1510F02AE082
:10168000D22E8E010F5D1F4F8D2C912CA12CB12CD1
:101690006C2D7E2FA50194010E942F2B8C2DD29EA4
:1016A00080191124015011098A3014F4805D01C0A1
:1016B000895CF8018083211531054105510521F030
:1016C000C22EE32FCA01E4CFB801C70155DFA196AE
:1016D0000FB6F894DEBF0FBECDBFDF91CF911F9143
:1016E0000F91FF90EF90DF90CF90BF90AF909F90C1
:1016F0008F900895CF92DF92EF92FF920F931F93F6
:10170000CF93DF93EC016A017B012115310579F458
:10171000E881F9810190F081E02D642FDF91CF9174
:101720001F910F91FF90EF90DF90CF9019942A3086
:101730003105D9F477FF18C06DE25ADF8C014427D8
:101740005527BA014C195D096E097F092AE0CE01BF
:1017500079DF800F911FDF91CF911F910F91FF9043
:10176000EF90DF90CF9008952AE0B701A601CE0157
:10177000DF91CF911F910F91FF90EF90DF90CF906D
:1017800061CF2115310541F4DC01ED91FC9101900F
:10179000F081E02D642F199455CF0F931F93CF93B1
:1017A000DF93EC01EEDF8C01CE0129DF800F911F6A
:1017B000DF91CF911F910F9108954F925F926F9299
:1017C0007F928F929F92AF92BF92CF92DF92EF92D1
:1017D000FF920F931F93CF93DF93EC016A017B017C
:1017E000B22E9A01AB01C701B6010E942B2B8823B0
:1017F00019F067E473E027C026013701E89477F811
:101800002FEF3FEF4FE75FE7C301B2010E942B2BA1
:1018100081110DC02FEF3FEF4FE75FE7C301B2012A
:101820000E94752918161CF46BE473E00CC02FEFAE
:101830003FEF4FE75FE4C701B6010E94C42A1816C4
:10184000A4F46FE473E0CE01DF91CF911F910F916B
:10185000FF90EF90DF90CF90BF90AF909F908F90D0
:101860007F906F905F904F9087CE2FEF3FEF4FE7C5
:101870005FECC701B6010E94752987FDE2CF20E029
:1018800030E0A901C701B6010E94752987FF09C090
:101890006DE2CE01ADDE8C01F7FAF094F7F8F0942A
:1018A00002C000E010E0A12C60E070E080E09FE367
:1018B000AB1441F020E030E040E251E40E9479298D
:1018C000A394F6CF9B01AC01C701B6010E94112978
:1018D0006B017C010E94E6292B013C010E94122A27
:1018E0009B01AC01C701B6010E9410296B017C016C
:1018F0002AE0B301A201CE01A5DE080F191FBB200B
:1019000031F06EEE72E0CE0137DE080F191F7B2C2E
:10191000772039F120E030E040E251E4C701B60120
:101920000E94C82A6B017C010E94E1294B01AA2474
:1019300097FCA094BA2C2AE030E0B501A401CE01B6
:10194000D9DE080F191FC501B4010E94142A9B019A
:10195000AC01C701B6010E9410296B017C017A9489
:10196000D7CFC801DF91CF911F910F91FF90EF90DA
:10197000DF90CF90BF90AF909F908F907F906F90AF
:101980005F904F9008950F931F93CF93DF93EC01D7
:1019900014DF8C01CE0133DE800F911FDF91CF91D8
:1019A0001F910F9108950E94762B0895A6D0FDDF18
:1019B0000DD9CBEDD7E052DA2097E9F3FCDAFBCF73
:1019C0001F920F920FB60F9211242F933F938F9374
:1019D0009F93AF93BF938091C5089091C608A09143
:1019E000C708B091C8083091C40823E0230F2D37F1
:1019F00020F40196A11DB11D05C026E8230F029613
:101A0000A11DB11D2093C4088093C5089093C608FA
:101A1000A093C708B093C8088091C9089091CA08DC
:101A2000A091CB08B091CC080196A11DB11D809367
:101A3000C9089093CA08A093CB08B093CC08BF9173
:101A4000AF919F918F913F912F910F900FBE0F906B
:101A50001F9018953FB7F8948091C9089091CA08D3
:101A6000A091CB08B091CC0826B5A89B05C02F3F0C
:101A700019F00196A11DB11D3FBF6627782F892F50
:101A80009A2F620F711D811D911D42E0660F771F15
:101A9000881F991F4A95D1F70895CF92DF92EF9250
:101AA000FF92CF93DF936B017C01D4DFEB01C11474
:101AB000D104E104F10479F044D1CCDF6C1B7D0B3F
:101AC000683E7340A0F381E0C81AD108E108F1082C
:101AD000C851DC4FECCFDF91CF91FF90EF90DF90BA
:101AE000CF9008958230910538F0880F991F880FA4
:101AF000991F05970197F1F70895789484B582604E
:101B000084BD84B5816084BD85B5826085BD85B5A1
:101B1000816085BDEEE6F0E0808181608083E1E850
:101B2000F0E0108280818260808380818160808388
:101B3000E0E8F0E0808181608083E1EBF0E080818B
:101B400084608083E0EBF0E0808181608083E1E964
:101B5000F0E0808182608083808181608083E0E921
:101B6000F0E0808181608083E1EAF0E08081826042
:101B70008083808181608083E0EAF0E08081816001
:101B80008083E1E2F1E080818260808380818160F6
:101B90008083E0E2F1E0808181608083EAE7F0E029
:101BA0008081846080838081826080838081816085
:101BB00080838081806880831092C100089590E0C6
:101BC000FC013197E231F10508F04CC0EE58FF4FAF
:101BD0000C94512B809180008F7703C080918000FE
:101BE0008F7D80938000089580918000877FF9CF5A
:101BF00084B58F7702C084B58F7D84BD08958091B0
:101C0000B0008F7703C08091B0008F7D8093B000CB
:101C10000895809190008F7707C0809190008F7D0C
:101C200003C080919000877F8093900008958091F9
:101C3000A0008F7707C08091A0008F7D03C08091A6
:101C4000A000877F8093A0000895809120018F7766
:101C500007C0809120018F7D03C080912001877F84
:101C6000809320010895CF93DF9390E0FC01EA5424
:101C7000FE4F2491FC01E450FE4F8491882349F1EA
:101C800090E0880F991FFC01E45AFD4FA591B49193
:101C90008E5B9D4FFC01C591D4919FB7611108C027
:101CA000F8948C91209582238C93888182230AC09A
:101CB000623051F4F8948C91322F309583238C93B9
:101CC0008881822B888304C0F8948C91822B8C931A
:101CD0009FBFDF91CF9108950F931F93CF93DF9311
:101CE0001F92CDB7DEB7282F30E0F901E059FE4F43
:101CF0008491F901EA54FE4F1491F901E450FE4F2A
:101D000004910023C1F0882319F0698358DF6981A9
:101D1000E02FF0E0EE0FFF1FEE5BFD4FA591B491B9
:101D20009FB7F8948C91611103C01095812301C075
:101D3000812B8C939FBF0F90DF91CF911F910F91BB
:101D4000089508952F923F924F925F926F927F92E3
:101D50008F929F92AF92BF92CF92DF92EF92FF92BB
:101D60000F931F93CF93DF9300D01F92CDB7DEB7B1
:101D70004C017C836B836A015901C8018701AC0166
:101D80004C195D0957FF03C05195419551099501C3
:101D90006B817C81261B370B37FF03C03195219562
:101DA000310922242394312C2417350714F0212CD7
:101DB000312C2114310459F03A2D2B2D5C01832F45
:101DC000922F3B812C81DC82CB82C32ED22EAB8121
:101DD000BC81AA16BB065CF43C2D2D2D6C01832F13
:101DE000922F3B812C81BC82AB82A32EB22E250187
:101DF000EB81FC814E1A5F0A3C016C187D0877FE6E
:101E000003C0719461947108720157FE03C0FFEF23
:101E1000EF1AFF0AF594E794C816D9062CF421E0CE
:101E200030E03A83298324C06FEF7FEF7A836983A0
:101E30001FC0D401ED91FC910480F581E02D980143
:101E400021143104D9F04B815C81B601C40119958C
:101E5000E618F708F7FE06C0E981FA81CE0EDF1E0C
:101E6000E40CF51C2B813C812F5F3F4F3C832B837F
:101E70006B817C81A616B706E4F604C0A6016B81CF
:101E80007C81E4CF0F900F900F900F90DF91CF9156
:101E90001F910F91FF90EF90DF90CF90BF90AF9088
:101EA0009F908F907F906F905F904F903F902F907A
:101EB00008956F927F928F929F92AF92BF92CF922E
:101EC000DF92EF92FF920F931F93CF93DF93EC017A
:101ED0005B016A0139014801E881F9810284F385D7
:101EE000E02D87011995E881F981A601480D591D5A
:101EF000415051090284F385E02D9301B501CE01D3
:101F00001995E881F9810084F185E02D9401A601FD
:101F1000B501CE011995E881F981B501660D771DEE
:101F2000615071090084F185E02D9401A601CE0174
:101F30001995DF91CF911F910F91FF90EF90DF9056
:101F4000CF90BF90AF909F908F907F906F900895AB
:101F5000EF92FF920F931F93DC01ED91FC91240F00
:101F6000351F215031090680F781E02D7801890164
:101F70009B0119951F910F91FF90EF900895EF929B
:101F8000FF920F931F93DC01ED91FC91260F371FF9
:101F9000215031090680F781E02D78018A011995D9
:101FA0001F910F91FF90EF9008956F927F928F9203
:101FB0009F92AF92BF92CF92DF92EF92FF920F93D8
:101FC0001F93CF93DF935C014A0169013801EB0154
:101FD000C60ED71ECC15DD0574F4D501ED91FC912C
:101FE0000084F185E02D87019301A401BE01C501A4
:101FF00019952196EFCFDF91CF911F910F91FF900F
:10200000EF90DF90CF90BF90AF909F908F907F9098
:102010006F900895EF92FF920F931F93DC01ED9163
:10202000FC9111971A960D911C911B9718962D9162
:102030003C9119970684F785E02D7B0140E050E044
:1020400060E070E019951F910F91FF90EF90089557
:102050000895FC011382128287E593E091838083C7
:10206000758364835783468371876087538742876C
:10207000158A158614861786168621E0248B8FEF25
:102080009FEF938B828B918B808B268B178A089581
:102090002F923F924F925F926F927F928F929F9278
:1020A000AF92BF92CF92DF92EF92FF920F931F9366
:1020B000CF93DF93CDB7DEB72C970FB6F894DEBF82
:1020C0000FBECDBF9C878B873A0118870F83FA8696
:1020D000E986CD82DC0118968D919C91199768173D
:1020E00079070CF09EC01A968D919C911B9748170A
:1020F00059070CF096C08C2C912CCB01B6E0CB9EEE
:10210000800D911D1124181619060CF08AC0C40107
:10211000E3E0880F991FEA95E1F7840F951F1816E1
:1021200019060CF07EC0AB85BC8557968C91811149
:1021300003C0203B08F02F5F5B016B011C8256E758
:10214000452E52E0552E461A570AB5E02B9F400CFB
:10215000511C1124EC81E53031F0F201EA0DFB1D38
:1021600024912B8301C01B827A82698213011E8213
:102170003B8130FF13C0AB85BC85ED91FC91BD81E7
:10218000B13031F40480F581E02D2F81388519C0FC
:102190000684F785E02DEF80F8841EC0E985FA8576
:1021A0002F813885E217F307F9F0AB85BC85ED91F7
:1021B000FC91BD81B13059F40480F581E02D298571
:1021C0003A85A101B5018B859C8519950DC00684C2
:1021D000F785E02DE984FA848401940149815A81CC
:1021E000B6018B859C851995EB81E695EB83FE8185
:1021F000FF5FFE8329813A81280D391D3A832983A7
:102200003FEF231A330AF83009F0B2CF4C814F5F09
:102210004C83C80CD91C8FEFA81AB80A463009F0B5
:1022200099CF2C960FB6F894DEBF0FBECDBFDF91CD
:10223000CF911F910F91FF90EF90DF90CF90BF90C3
:10224000AF909F908F907F906F905F904F903F9056
:102250002F900895CF92EF92FF920F931F93CF93F9
:10226000DF93EC01262F6A30C9F48C894E855F8597
:1022700038E0839F400D511D11245F874E878A856A
:102280009B85481759070CF454C0E881F9810889E7
:102290001989009510952885398542C06D3009F45B
:1022A0007FC0088919897801E094F0944E855F8594
:1022B0006C857D85CC88ECDE2C89422F50E08C85A6
:1022C0009D8536E0239F800D911D11249D878C876D
:1022D0002E89222309F464C0288539851AEF140356
:1022E000B001159F700D1124620F731F8617970799
:1022F0000CF456C0F3E0440F551FFA95E1F78E85B4
:102300009F85480F591F5F874E878A859B85481791
:1023100059077CF0E881F9810889198900951095A1
:102320000284F385E02D60E070E0CE0119951F86F0
:102330001E86E881F98108891989009510952885FC
:1023400039854E855F850284F385E02D60E070E07D
:10235000CE011995E881F98108891989288539857F
:102360004E855F85485F5F4F0284F385E02D60E016
:1023700070E0CE011995E881F981E888F988E09448
:10238000F094288539854E855F850684F785E02D94
:1023900008E010E060E070E0CE0119951D861C8613
:1023A00081E090E0DF91CF911F910F91FF90EF902E
:1023B000CF900895FC0175876487578746870895F5
:1023C000611101C061E0FC01648B0895FC01718B17
:1023D000608B0895FC016370658B848195812681F3
:1023E0003781613039F0633029F0918780873387F6
:1023F0002287089531872087938782870895FC017B
:10240000808591850895FC01828593850895AF921A
:10241000BF92CF92DF92EF92FF920F931F93CF93D1
:10242000DF93EC017B018A01690177FD4DC457FD03
:102430004BC488859985681779070CF045C48A854F
:102440009B85481759070CF03FC4EA8DFB8D8081AE
:102450009EA189238083EC8DFD8D80819FA189239E
:102460008083898D8A3269F4EE8DFF8D808198A5F5
:1024700089238083EE8DFF8D80819CA1892B8083B1
:102480001FC08EB18F7C80628EB9739AA59880919F
:102490000201877E80930201809102018F7980641E
:1024A00080930201EE8DFF8D808198A58923808322
:1024B000EE8DFF8D80819CA1892B80838AE2898F9C
:1024C000AF2CBE2CEC8DFD8D80819BA1892B808350
:1024D000898DF8120DC0EE8DFF8D808198A589231E
:1024E0008083EE8DFF8D80819CA1892B808344C0E9
:1024F0004EB18F2D90E09C01220F331F220F331F0E
:1025000020734F7C242B2EB94EB19C013595279515
:10251000359527952870477F242B2EB944B39C010D
:10252000220F331F20724F7D242B24BB40910201C8
:102530009C01E3E035952795EA95E1F72871477E00
:10254000242B2093020120910201F5E0880F991FAE
:10255000FA95E1F780762F79822B80930201EE8D38
:10256000FF8D808198A589238083EE8DFF8D8081EA
:102570009CA1892B8083F98E81E090E0B3DA898D6C
:10258000B8120DC0EE8DFF8D808198A589238083C0
:10259000EE8DFF8D80819CA1892B808344C04EB13C
:1025A000C70199279C01220F331F220F331F20736D
:1025B0004F7C242B2EB94EB19C013595279535952E
:1025C00027952870477F242B2EB944B39C01220FF6
:1025D000331F20724F7D242B24BB409102019C01AC
:1025E000B3E035952795BA95E1F72871477E242BFE
:1025F000209302012091020135E0880F991F3A953E
:10260000E1F780762F79822B80930201EE8DFF8D8A
:10261000808198A589238083EE8DFF8D80819CA188
:10262000892B8083E98E81E090E05CDAEC8DFD8D72
:1026300080819BA1892B8083898DA8120DC0EE8D8E
:10264000FF8D808198A589238083EE8DFF8D808109
:102650009CA1892B808344C04EB18F2D90E09C01BA
:10266000220F331F220F331F20734F7C242B2EB9D0
:102670004EB19C0135952795359527952870477F54
:10268000242B2EB944B39C01220F331F20724F7D9F
:10269000242B24BB409102019C0163E035952795D2
:1026A0006A95E1F72871477E242B2093020120913F
:1026B000020175E0880F991F7A95E1F780762F79EE
:1026C000822B80930201EE8DFF8D808198A5892356
:1026D0008083EE8DFF8D80819CA1892B8083F98E74
:1026E00081E090E0FFD9898DB8120DC0EE8DFF8D8D
:1026F000808198A589238083EE8DFF8D80819CA1A8
:10270000892B808344C04EB1C70199279C01220FB9
:10271000331F220F331F20734F7C242B2EB94EB151
:102720009C0135952795359527952870477F242B53
:102730002EB944B39C01220F331F20724F7D242BEE
:1027400024BB409102019C01E3E035952795EA9571
:10275000E1F72871477E242B20930201209102018A
:10276000F5E0880F991FFA95E1F780762F79822B93
:1027700080930201EE8DFF8D808198A5892380834F
:10278000EE8DFF8D80819CA1892B8083E98E81E075
:1027900090E0A8D9EC8DFD8D80819FA18923808355
:1027A000898D8B3269F4EE8DFF8D808198A5892308
:1027B0008083EE8DFF8D80819CA1892B80831EC03C
:1027C0008EB18F7C80628EB9739AA5988091020138
:1027D000877E8093020180910201806680930201CE
:1027E000EE8DFF8D808198A589238083EE8DFF8DEE
:1027F00080819CA1892B80838BE2898FE12EF02E32
:10280000EC8DFD8D80819BA1892B8083898D181390
:102810000DC0EE8DFF8D808198A589238083EE8D7C
:10282000FF8D80819CA1892B808344C04EB1812F74
:1028300090E09C01220F331F220F331F20734F7C27
:10284000242B2EB94EB19C013595279535952795AA
:102850002870477F242B2EB944B39C01220F331FCD
:1028600020724F7D242B24BB409102019C01B3E0D8
:1028700035952795BA95E1F72871477E242B20934B
:1028800002012091020135E0880F991F3A95E1F786
:1028900080762F79822B80930201EE8DFF8D8081CF
:1028A00098A589238083EE8DFF8D80819CA1892B43
:1028B0008083198F81E090E015D9898DF8120DC0C1
:1028C000EE8DFF8D808198A589238083EE8DFF8D0D
:1028D00080819CA1892B808344C04EB1C801992777
:1028E0009C01220F331F220F331F20734F7C242B98
:1028F0002EB94EB19C0135952795359527952870B1
:10290000477F242B2EB944B39C01220F331F207222
:102910004F7D242B24BB409102019C0163E035953F
:1029200027956A95E1F72871477E242B20930201B1
:102930002091020175E0880F991F7A95E1F7807662
:102940002F79822B80930201EE8DFF8D808198A5D7
:1029500089238083EE8DFF8D80819CA1892B8083CC
:10296000098F81E090E0BED8EC8DFD8D80819BA128
:10297000892B8083898DE8120DC0EE8DFF8D8081BB
:1029800098A589238083EE8DFF8D80819CA1892B62
:10299000808344C04EB1812F90E09C01220F331FF1
:1029A000220F331F20734F7C242B2EB94EB19C0174
:1029B00035952795359527952870477F242B2EB977
:1029C00044B39C01220F331F20724F7D242B24BB64
:1029D000409102019C01E3E035952795EA95E1F7E6
:1029E0002871477E242B2093020120910201F5E0FB
:1029F000880F991FFA95E1F780762F79822B8093C3
:102A00000201EE8DFF8D808198A589238083EE8D54
:102A1000FF8D80819CA1892B8083198F81E090E0BC
:102A200061D8898DF8120DC0EE8DFF8D808198A53B
:102A300089238083EE8DFF8D80819CA1892B8083EB
:102A400044C04EB1C80199279C01220F331F220FA9
:102A5000331F20734F7C242B2EB94EB19C0135952A
:102A60002795359527952870477F242B2EB944B399
:102A70009C01220F331F20724F7D242B24BB4091D9
:102A800002019C01A3E035952795AA95E1F72871ED
:102A9000477E242B2093020120910201B5E0880F8C
:102AA000991FBA95E1F780762F79822B80930201E6
:102AB000EE8DFF8D808198A589238083EE8DFF8D1B
:102AC00080819CA1892B8083098F81E090E00AD8C6
:102AD000EC8DFD8D80819FA189238083898D8C322F
:102AE00069F4EE8DFF8D808198A589238083EE8D1A
:102AF000FF8D80819CA1892B80831DC08EB1806356
:102B00008EB9739AA59880910201877E8093020105
:102B1000809102018F7980930201EE8DFF8D80817B
:102B200098A589238083EE8DFF8D80819CA1892BC0
:102B300080838CE2898FEC8DFD8D80819BA1892B18
:102B400080831C2DEC8DFD8D80819BA1892B808342
:102B5000898D8D110DC0EE8DFF8D808198A5892303
:102B60008083EE8DFF8D80819CA1892B808344C062
:102B70004EB18D2D90E09C01220F331F220F331F89
:102B800020734F7C242B2EB94EB19C01359527958F
:102B9000359527952870477F242B2EB944B39C0187
:102BA000220F331F20724F7D242B24BB4091020142
:102BB0009C0153E0359527955A95E1F72871477E9A
:102BC000242B209302012091020165E0880F991FB8
:102BD0006A95E1F780762F79822B80930201EE8D42
:102BE000FF8D808198A589238083EE8DFF8D808164
:102BF0009CA1892B8083D98E81E090E00E94720D88
:102C0000898D18130DC0EE8DFF8D808198A58923C5
:102C10008083EE8DFF8D80819CA1892B808344C0B1
:102C20004EB1C60199279C01220F331F220F331F7B
:102C300020734F7C242B2EB94EB19C0135952795DE
:102C4000359527952870477F242B2EB944B39C01D6
:102C5000220F331F20724F7D242B24BB4091020191
:102C60009C01E3E035952795EA95E1F72871477EC9
:102C7000242B2093020120910201F5E0880F991F77
:102C8000FA95E1F780762F79822B80930201EE8D01
:102C9000FF8D808198A589238083EE8DFF8D8081B3
:102CA0009CA1892B8083C98E81E090E00E94720DE7
:102CB000EA8DFB8D80819AA1892B8083EA8DFB8D23
:102CC00080819AA1892B8083DF91CF911F910F91F1
:102CD000FF90EF90DF90CF90BF90AF900895CF938B
:102CE000DF93EC01EA8DFB8D80819AA1892B808393
:102CF000EE8DFF8D80819CA1892B8083E8A1F9A1B5
:102D000080819DA1892B80838AA5882369F060E05A
:102D10000E946C0E62E070E080E090E00E944D0D39
:102D200061E08AA50E946C0EEA8DFB8D80819EA1D8
:102D300089238083EC8DFD8D80819FA189238083F1
:102D4000898D81110DC0EE8DFF8D808198A589231D
:102D50008083EE8DFF8D80819CA1892B80831CC098
:102D60008EB18F7C8EB97398A59880910201877E71
:102D700080930201809102018F7980930201EE8D90
:102D8000FF8D808198A589238083EE8DFF8D8081C2
:102D90009CA1892B8083198E83E0EE8DFF8D90811D
:102DA00028A592239083EE8DFF8D90812CA1922BEC
:102DB0009083815091F7EA8DFB8D80819AA1892BB8
:102DC0008083DF91CF9108954F925F926F927F92AF
:102DD0008F929F92AF92BF92CF92DF92EF92FF922B
:102DE0000F931F93CF93DF931F92CDB7DEB72C01C4
:102DF000742E622EDC015A96ED91FC915B978081D6
:102E000096969C919697892380837801A22EB32E63
:102E1000C42ED52E4B015C96ED91FC915D9780817F
:102E200097969C9197978923808359968C9159976F
:102E30008A32A1F45E96ED91FC915F97808198961D
:102E40009C919897892380835E96ED91FC915F9782
:102E5000808194969C91892B808329C08EB18F7C30
:102E600080628EB9739AA59880910201877E8093C3
:102E70000201809102018F79806480930201D20166
:102E80005E96ED91FC915F97808198969C919897C2
:102E9000892380835E96ED91FC915F978081949663
:102EA0009C919497892B80838AE259968C93D201C6
:102EB0005C96ED91FC915D97808193969C919397A0
:102EC000892B808359968C915997891114C05E96ED
:102ED000ED91FC915F97808198969C9198978923BA
:102EE00080835E96ED91FC915F97808194969C9192
:102EF000892B80834EC04EB1892D90E09C01220F1A
:102F0000331F220F331F20734F7C242B2EB94EB159
:102F10009C0135952795359527952870477F242B5B
:102F20002EB944B39C01220F331F20724F7D242BF6
:102F300024BB409102019C01F3E035952795FA9559
:102F4000E1F72871477E242B209302012091020192
:102F5000A5E0880F991FAA95E1F780762F79822B3B
:102F600080930201D2015E96ED91FC915F97808182
:102F700098969C919897892380835E96ED91FC9119
:102F80005F97808194969C919497892B8083599622
:102F90009C9281E090E069830E94720DF201818D24
:102FA0006981681314C0068CF78DE02D8081D201F1
:102FB00098969C919897892380835E96ED91FC91D9
:102FC0005F97808194969C91892B80834DC02EB110
:102FD0009924C401880F991F880F991F80732F7C33
:102FE000822B8EB92EB1C4019595879595958795BD
:102FF0008870277F822B8EB924B3C401880F991F54
:1030000080722F7D822B84BB20910201C40133E0AA
:10301000959587953A95E1F78871277E822B809365
:10302000020120910201C40145E0880F991F4A95D1
:10303000E1F780762F79822B80930201D201068CF2
:10304000F78DE02D808198969C91989789238083B5
:103050005E96ED91FC915F97808194969C919497F8
:10306000892B808359966C9381E090E00E94720DC9
:10307000D2015C96ED91FC915D97808193969C9135
:103080009397892B808359968C9159978B1114C0F3
:103090005E96ED91FC915F97808198969C919897B0
:1030A000892380835E96ED91FC915F978081949651
:1030B0009C91892B80834EC04EB18B2D90E09C015A
:1030C000220F331F220F331F20734F7C242B2EB966
:1030D0004EB19C0135952795359527952870477FEA
:1030E000242B2EB944B39C01220F331F20724F7D35
:1030F000242B24BB409102019C01E3E035952795E8
:10310000EA95E1F72871477E242B20930201209154
:103110000201F5E0880F991FFA95E1F780762F7983
:10312000822B80930201D2015E96ED91FC915F9714
:10313000808198969C919897892380835E96ED91E3
:10314000FC915F97808194969C919497892B8083C2
:103150005996BC9281E090E00E94720DF201818D3F
:10316000681214C0068CF78DE02D8081D2019896EC
:103170009C919897892380835E96ED91FC915F974F
:10318000808194969C91892B80834DC02EB1BB2465
:10319000C501880F991F880F991F80732F7C822B80
:1031A0008EB92EB1C50195958795959587958870AF
:1031B000277F822B8EB924B3C501880F991F807297
:1031C0002F7D822B84BB20910201C50133E09595B0
:1031D00087953A95E1F78871277E822B80930201CB
:1031E00020910201C50145E0880F991F4A95E1F73A
:1031F00080762F79822B80930201D201068CF78D85
:10320000E02D808198969C919897892380835E9683
:10321000ED91FC915F97808194969C919497892B76
:10322000808359966C9281E090E00E94720DD201E9
:103230005C96ED91FC915D97808197969C91979714
:103240008923808359968C9159978B32A1F45E968D
:10325000ED91FC915F97808198969C919897892336
:1032600080835E96ED91FC915F97808194969C910E
:10327000892B808328C08EB18F7C80628EB9739A2F
:10328000A59880910201877E8093020180910201BE
:10329000806680930201D2015E96ED91FC915F976A
:1032A000808198969C919897892380835E96ED9172
:1032B000FC915F97808194969C919497892B808351
:1032C0008BE259968C93D2015C96ED91FC915D97BF
:1032D000808193969C919397892B808359968C91AA
:1032E00059978D1114C05E96ED91FC915F97808186
:1032F00098969C919897892380835E96ED91FC9196
:103300005F97808194969C91892B80834EC04EB1AB
:103310008D2D90E09C01220F331F220F331F20734D
:103320004F7C242B2EB94EB19C01359527953595B0
:1033300027952870477F242B2EB944B39C01220F78
:10334000331F20724F7D242B24BB409102019C012E
:10335000E3E035952795EA95E1F72871477E242B20
:103360002093020120910201F5E0880F991FFA9540
:10337000E1F780762F79822B80930201D2015E964D
:10338000ED91FC915F97808198969C919897892305
:1033900080835E96ED91FC915F97808194969C91DD
:1033A0009497892B80835996DC9281E090E00E946B
:1033B000720DF201818D781214C0068CF78DE02D0C
:1033C0008081D20198969C919897892380835E96FC
:1033D000ED91FC915F97808194969C91892B8083DD
:1033E0004DC02EB1DD24C601880F991F880F991F8B
:1033F00080732F7C822B8EB92EB1C601959587954F
:10340000959587958870277F822B8EB924B3C60146
:10341000880F991F80722F7D822B84BB209102011F
:10342000C60133E0959587953A95E1F78871277E37
:10343000822B8093020120910201C60145E0880F92
:10344000991F4A95E1F780762F79822B80930201AC
:10345000D201068CF78DE02D808198969C919897EB
:10346000892380835E96ED91FC915F97808194968D
:103470009C919497892B808359967C9281E090E06F
:103480000E94720DD2015C96ED91FC915D97808156
:1034900093969C919397892B808359968C915997F9
:1034A0008F1114C05E96ED91FC915F978081989684
:1034B0009C919897892380835E96ED91FC915F970C
:1034C000808194969C91892B80834EC04EB18F2D24
:1034D00090E09C01220F331F220F331F20734F7C7B
:1034E000242B2EB94EB19C013595279535952795FE
:1034F0002870477F242B2EB944B39C01220F331F21
:1035000020724F7D242B24BB409102019C01E3E0FB
:1035100035952795EA95E1F72871477E242B20936E
:10352000020120910201F5E0880F991FFA95E1F759
:1035300080762F79822B80930201D2015E96ED91E5
:10354000FC915F97808198969C91989789238083BE
:103550005E96ED91FC915F97808194969C919497F3
:10356000892B80835996FC9281E090E00E94720D35
:10357000F201818D081314C0068CF78DE02D808137
:10358000D20198969C919897892380835E96ED91BD
:10359000FC915F97808194969C91892B80834DC08C
:1035A0002EB1FF24C701880F991F880F991F8073C0
:1035B0002F7C822B8EB92EB1C70195958795959555
:1035C00087958870277F822B8EB924B3C701880F17
:1035D000991F80722F7D822B84BB20910201C7012D
:1035E00033E0959587953A95E1F78871277E822B90
:1035F0008093020120910201C70145E0880F991FC5
:103600004A95E1F780762F79822B80930201D201CF
:10361000068CF78DE02D808198969C919897892350
:1036200080835E96ED91FC915F97808194969C914A
:103630009497892B808359960C9381E090E00E94A7
:10364000720DD2015A96ED91FC915B978081929612
:103650009C91892B80830F90DF91CF911F910F91C7
:10366000FF90EF90DF90CF90BF90AF909F908F90A2
:103670007F906F905F904F900895DC015A96ED9186
:10368000FC915B97208192968C91282B2083089542
:103690006F927F928F929F92AF92BF92CF92DF9262
:1036A000EF92FF920F931F93CF93DF93FC01CB0117
:1036B000C92FD62FA28DB38D6C9176A167236C9301
:1036C000A48DB58D6C9177A167236C93618D6C325D
:1036D00069F4A68DB78D6C9170A567236C93A68D48
:1036E000B78D6C9174A1672B6C931DC06EB1606334
:1036F0006EB9739AA59860910201677E609302018A
:10370000609102016F7960930201A68DB78D6C9173
:1037100070A567236C93A68DB78D6C9174A1672BF0
:103720006C936CE2618FA48DB58D6C9173A1672B46
:103730006C93618DC6130DC0A68DB78D6C9170A56D
:1037400067236C93A68DB78D6C9174A1672B6C93D6
:1037500044C01EB1692F70E0DB01AA0FBB1FAA0F86
:10376000BB1FA0731F7CA12BAEB91EB1DB01B595A9
:10377000A795B595A795A870177FA12BAEB914B3DF
:10378000DB01AA0FBB1FA0721F7DA12BA4BB109150
:103790000201DB0103E0B595A7950A95E1F7A87151
:1037A000177EA12BA0930201A0910201B5E0660F44
:1037B000771FBA95E1F76076AF796A2B60930201C3
:1037C000A68DB78D6C9170A567236C93A68DB78D70
:1037D0006C9174A1672B6C93918F618DD6130DC082
:1037E000A68DB78D6C9170A567236C93A68DB78D50
:1037F0006C9174A1672B6C9344C01EB1BC017727F8
:10380000DB01AA0FBB1FAA0FBB1FA0731F7CA12B3C
:10381000AEB91EB1DB01B595A795B595A795A87072
:10382000177FA12BAEB914B3DB01AA0FBB1FA07287
:103830001F7DA12BA4BB10910201DB0103E0B59514
:10384000A7950A95E1F7A871177EA12BA093020115
:10385000A0910201B5E0660F771FBA95E1F7607697
:10386000AF796A2B60930201A68DB78D6C9170A51C
:1038700067236C93A68DB78D6C9174A1672B6C93A5
:10388000818FBA01A90141505109610971098A0169
:103890009B01A6E03695279517950795AA95D1F730
:1038A0009801CD1709F44EC0A92FB0E07D01EE0CB0
:1038B000FF1CEE0CFF1C1E2D1073912E5D01B594A4
:1038C000A794B594A7941A2D1870A12E7D01EE0C23
:1038D000FF1C1E2D1072B12E6D0163E0D594C794AC
:1038E0006A95E1F71C2D1871C12E75E0AA0FBB1F58
:1038F0007A95E1F71A2F1076D12E9927DC01AA0FBD
:10390000BB1FAA0FBB1F1A2F1073DC01B595A7951B
:10391000B595A7950A2F08707C01EE0CFF1CAE2D03
:10392000A072FA2E3C0163E0759467946A95E1F702
:10393000A62DA871EA2E75E0880F991F7A95E1F7F8
:1039400080761CC180E090E02817390709F466C032
:10395000C0E1A68DB78DDC9110A5D123DC93A68D97
:10396000B78DDC9114A1D12BDC93A68DB78DDC91A2
:1039700010A5D123DC93A68DB78DDC9114A1D12B9A
:10398000DC93A68DB78DDC9110A5D123DC93A68D99
:10399000B78DDC9114A1D12BDC93A68DB78DDC9172
:1039A00010A5D123DC93A68DB78DDC9114A1D12B6A
:1039B000DC93A68DB78DDC9110A5D123DC93A68D69
:1039C000B78DDC9114A1D12BDC93A68DB78DDC9142
:1039D00010A5D123DC93A68DB78DDC9114A1D12B3A
:1039E000DC93A68DB78DDC9110A5D123DC93A68D39
:1039F000B78DDC9114A1D12BDC93A68DB78DDC9112
:103A000010A5D123DC93A68DB78DDC9114A1D12B09
:103A1000DC93C15009F09DCF019696CF4F73415072
:103A2000E8F0A68DB78D8C9190A589238C93A68DF7
:103A3000B78D8C9194A1892B8C93A68DB78D8C9189
:103A400090A589238C93A68DB78D8C9194A1892BF9
:103A50008C93E5CF4F73415008F0C6C1A28DB38D52
:103A60008C9192A1892B8C93DF91CF911F910F9113
:103A7000FF90EF90DF90CF90BF90AF909F908F908E
:103A80007F906F900895A18DCA137EC0A68DB78DCB
:103A90008C9070A487208C92A68DB78D8C9074A08A
:103AA00087288C92A18DDA1395C0A68DB78D8C9046
:103AB00070A487208C92A68DB78D8C9074A08728D7
:103AC0008C92A18DCA13ACC0A68DB78D8C9070A4BA
:103AD00087208C92A68DB78D8C9074A087288C92AD
:103AE000A18DDA13C3C0A68DB78D8C9070A48720EA
:103AF0008C92A68DB78D8C9074A087288C92A18D06
:103B0000CA13DAC0A68DB78D8C9070A487208C92D2
:103B1000A68DB78D8C9074A087288C92A18DDA1316
:103B2000F1C0A68DB78D8C9070A487208C92A68D45
:103B3000B78D8C9074A087288C92A18DCA1308C170
:103B4000A68DB78D8C9070A487208C92A68DB78D92
:103B50008C9074A087288C92A18DDA131FC1A68D3A
:103B6000B78D8C9070A487208C92A68DB78D8C9089
:103B700074A087288C92915009F085CF215031098B
:103B800008F468CF90E17FCFAEB1AF7CA929AEB980
:103B9000AEB1A77FAA29AEB9A4B3AF7DAB29A4BBB0
:103BA000A0910201A77EAC29A0930201A09102017D
:103BB000AF79AD29A0930201A68DB78D8C9070A42A
:103BC00087208C92A68DB78D8C9074A087288C92BC
:103BD000C18F68CFAEB1AF7CA12BAEB9AEB1A77F1C
:103BE000A02BAEB9A4B3AF7DAF29A4BBA0910201B5
:103BF000A77EAE29A0930201A0910201AF79A82B64
:103C0000A0930201A68DB78D8C9070A487208C9212
:103C1000A68DB78D8C9074A087288C92D18F51CFB0
:103C2000AEB1AF7CA929AEB9AEB1A77FAA29AEB912
:103C3000A4B3AF7DAB29A4BBA0910201A77EAC29A0
:103C4000A0930201A0910201AF79AD29A0930201D6
:103C5000A68DB78D8C9070A487208C92A68DB78D81
:103C60008C9074A087288C92C18F3ACFAEB1AF7C74
:103C7000A12BAEB9AEB1A77FA02BAEB9A4B3AF7DD7
:103C8000AF29A4BBA0910201A77EAE29A093020197
:103C9000A0910201AF79A82BA0930201A68DB78D48
:103CA0008C9070A487208C92A68DB78D8C9074A078
:103CB00087288C92D18F23CFAEB1AF7CA929AEB922
:103CC000AEB1A77FAA29AEB9A4B3AF7DAB29A4BB7F
:103CD000A0910201A77EAC29A0930201A09102014C
:103CE000AF79AD29A0930201A68DB78D8C9070A4F9
:103CF00087208C92A68DB78D8C9074A087288C928B
:103D0000C18F0CCFAEB1AF7CA12BAEB9AEB1A77F46
:103D1000A02BAEB9A4B3AF7DAF29A4BBA091020183
:103D2000A77EAE29A0930201A0910201AF79A82B32
:103D3000A0930201A68DB78D8C9070A487208C92E1
:103D4000A68DB78D8C9074A087288C92D18FF5CEDC
:103D5000AEB1AF7CA929AEB9AEB1A77FAA29AEB9E1
:103D6000A4B3AF7DAB29A4BBA0910201A77EAC296F
:103D7000A0930201A0910201AF79AD29A0930201A5
:103D8000A68DB78D8C9070A487208C92A68DB78D50
:103D90008C9074A087288C92C18FDECEAEB1AF7CA0
:103DA000A12BAEB9AEB1A77FA02BAEB9A4B3AF7DA6
:103DB000AF29A4BBA0910201A77EAE29A093020166
:103DC000A0910201AF79A82BA0930201A68DB78D17
:103DD0008C9070A487208C92A68DB78D8C9074A047
:103DE00087288C92D18FC7CE918DC9130DC0A68D17
:103DF000B78D9C9120A592239C93A68DB78D9C9105
:103E000024A1922B9C9325C09EB19F7C99299EB999
:103E10009EB1977F9A299EB994B39F7D9B2994BBAD
:103E200090910201977E9C2990930201909102014A
:103E30009F799D2990930201A68DB78D9C9120A515
:103E400092239C93A68DB78D9C9124A1922B9C9339
:103E5000C18F918DD9130DC0A68DB78D9C9120A5D2
:103E600092239C93A68DB78D9C9124A1922B9C9319
:103E7000F2CD9EB19F7C912B9EB99EB1977F902BE6
:103E80009EB994B39F7D9F2994BB90910201977E28
:103E90009E2990930201909102019F79982B909313
:103EA0000201A68DB78D9C9120A592239C93A68D8F
:103EB000B78D9C9124A1922B9C93D18FCCCDCF9286
:103EC000DF92EF92FF920F931F93CF93DF937C01CA
:103ED0006901E80112161306CCF557FD37C0FC0145
:103EE00082859385481759078CF5808591856817D9
:103EF000790764F5FB01E20FF31F9F01215031099F
:103F000037FD24C077FF03C06F0160E070E0281721
:103F1000390734F09C01215031096C01C61AD70AC7
:103F20008A01C7010E94E4169601442737FD409597
:103F3000542FBE01C701ACDBC701DF91CF911F91A8
:103F40000F91FF90EF90DF90CF9097CBDF91CF91C3
:103F50001F910F91FF90EF90DF90CF900895CF9237
:103F6000DF92EF92FF920F931F93CF93DF937C0129
:103F70006901E80112161306CCF577FD37C0FC0184
:103F800080859185681779078CF582859385481718
:103F9000590764F59A012C0D3D1D89010150110945
:103FA00017FD24C057FF03C0690140E050E0081727
:103FB000190734F08C01015011096C01C41AD50A9B
:103FC0009B01C7010E94E4169601442737FD4095E6
:103FD000542FBE01C7015CDBC701DF91CF911F9158
:103FE0000F91FF90EF90DF90CF9047CBDF91CF9173
:103FF0001F910F91FF90EF90DF90CF9008958F92D7
:104000009F92AF92BF92CF92DF92EF92FF920F9367
:104010001F93CF93DF93EC015901680147011216FA
:1040200013060CF056C0101611060CF052C088850D
:104030009985681779070CF04CC0EA84FB844E150B
:104040005F050CF046C0FB01E20FF31F9F012150FA
:10405000310937FD3EC0DA01A00FB11F8D010150BB
:10406000110917FD36C077FF03C05F0160E070E003
:1040700057FF03C06D0140E050E02817390734F0C6
:104080009C01215031095C01A61AB70A0E151F05C3
:1040900034F08701015011096701C41AD50ACE0115
:1040A0000E94E4169601D5010E94572B9B01AC019A
:1040B000B401CE01EDDACE01DF91CF911F910F91C6
:1040C000FF90EF90DF90CF90BF90AF909F908F9038
:1040D000D4CADF91CF911F910F91FF90EF90DF90A5
:1040E000CF90BF90AF909F908F900895EF92FF92E6
:1040F0000F931F93CF93DF93EC017B010A851B8500
:1041000001501109288539852150310940E050E0DE
:1041100060E070E00E94E41620E03CE241E050E004
:10412000B701CE01DF91CF911F910F91FF90EF90DA
:10413000AFCA8DB188638DB99D9AE1E0F1E08081CD
:10414000886780830895CF93DF93EC01F2DF1D8AA7
:104150001D861C861F861E8681E08C8B8FEF9FEF4D
:10416000998B888B80EF90E09987888780E491E035
:104170009B878A87DF91CF910895CF93DF93EC01DE
:1041800040E451E060EF70E00E9429108FE693E078
:1041900099838883198E8AE38AA7E5E3F2E0E491A4
:1041A000F0E0EE0FFF1FEE5BFD4FA591B491BB8FCA
:1041B000AA8FE4E3F2E0E491F0E0EE0FFF1FEE5B84
:1041C000FD4F859194919D8F8C8FE3E3F2E0E49114
:1041D000F0E0EE0FFF1FEE5BFD4F859194919F8FF6
:1041E0008E8FE2E3F2E0E491F0E0EE0FFF1FEE5B72
:1041F000FD4F8591949199A388A3EFEEF1E0E491AE
:10420000EAA3EEEEF1E0E491EBA3EDEEF1E0E49150
:10421000ECA3ECEEF1E0E491EDA39AA1892F809557
:104220008EA38BA180958FA38CA1809588A7E09504
:10423000E9A78C91892B8C93EC8DFD8D80819BA1BE
:10424000892B8083EE8DFF8D80819CA1892B8083BB
:10425000E8A1F9A180819DA1892B808361E089E398
:104260000E94330E61E088E30E94330E61E087E331
:104270000E94330E61E086E30E94330E61E08AE320
:104280000E946C0E61E08AE30E94330ECE01DF9142
:10429000CF9159CFCF93DF93FC01A48DB58D8C9135
:1042A00097A189238C932EB170E0CB01880F991FC1
:1042B000880F991F80732F7C822B8EB92EB1CB0172
:1042C00095958795959587958870277F822B8EB9D0
:1042D00024B3CB01880F991F80722F7D822B84BB62
:1042E000A2E0B1E02C91CB01C3E095958795CA95EA
:1042F000E1F78871277E822B8C938C91D5E0660F35
:10430000771FDA95E1F760768F79682B6C93C68D0D
:10431000D78D888190A589238883C68DD78D888184
:1043200094A1892B8883C48DD58D888193A1892BF5
:1043300088832EB150E0CA01880F991F880F991FFA
:1043400080732F7C822B8EB92EB1CA0195958795EB
:10435000959587958870277F822B8EB924B3CA01E3
:10436000880F991F80722F7D822B84BB2C91CA01EC
:10437000C3E095958795CA95E1F78871277E822BD2
:104380008C938C91D5E0440F551FDA95E1F7407678
:104390008F79482B4C93A68DB78D8C9190A589234E
:1043A0008C93A68DB78D8C9194A1892B8C93DF91E2
:1043B000CF910895EF92FF920F931F93CF93DF93C6
:1043C0001F92CDB7DEB77C0149830E94EA11D70165
:1043D0005A96ED91FC915B97808196969C91969769
:1043E0008923808355968C914981813049F030F042
:1043F000823041F0833039F448E205C048E803C018
:1044000048EE01C048E466E3C70144DFF7010285D6
:10441000138501501109208531852150310940E073
:1044200050E060E070E0C7010E94E4160F90DF9159
:10443000CF911F910F91FF90EF900895CF93DF934D
:10444000FC01A48DB58D8C9197A189238C93AEB17D
:10445000872F99279C01220F331F220F331F2073B0
:10446000AF7C2A2B2EB9AEB19C0135952795359599
:1044700027952870A77F2A2B2EB9A4B39C01220F61
:10448000331F2072AF7D2A2B24BBA2E0B1E0CC9178
:104490009C01D3E035952795DA95E1F72871C77E21
:1044A0002C2B2C932C9135E0880F991F3A95E1F72E
:1044B00080762F79822B8C93C68DD78D888190A59D
:1044C00089238883C68DD78D888194A1892B888381
:1044D0002EB17727CB01880F991F880F991F807302
:1044E0002F7C822B8EB92EB1CB0195958795959512
:1044F00087958870277F822B8EB924B3CB01880FD4
:10450000991F80722F7D822B84BB2C91CB01C3E03D
:1045100095958795CA95E1F78871277E822B8C93B4
:104520008C91D5E0660F771FDA95E1F760768F7989
:10453000682B6C93C68DD78D888190A5892388833D
:10454000C68DD78D888194A1892B8883C48DD58D04
:10455000888193A1892B88836EB1852F99279C012F
:10456000220F331F220F331F20736F7C262B2EB98F
:104570006EB19C0135952795359527952870677FF5
:10458000262B2EB964B39C01220F331F20726F7D3E
:10459000262B24BB6C919C0173E0359527957A9569
:1045A000E1F72871677E262B2C932C91C5E0880FAC
:1045B000991FCA95E1F780762F79822B8C93C68D4F
:1045C000D78D888190A589238883C68DD78D8881D2
:1045D00094A1892B88832EB15527CA01880F991F72
:1045E000880F991F80732F7C822B8EB92EB1CA0140
:1045F00095958795959587958870277F822B8EB99D
:1046000024B3CA01880F991F80722F7D822B84BB2F
:104610002C91CA0173E0959587957A95E1F7887199
:10462000277E822B8C938C91C5E0440F551FCA9531
:10463000E1F740768F79482B4C93A68DB78D8C91FE
:1046400090A589238C93A68DB78D8C9194A1892BED
:104650008C93DF91CF9108950F931F93CF93DF93A6
:10466000EC010E946F16EA8DFB8D80819EA189234B
:10467000808340E061E0CE010DDE40E061E0CE01EC
:1046800009DE62E370E080E090E00E944D0D40E0C2
:1046900068E2CE01FFDD43E260ECCE01FBDD40E1EC
:1046A00061ECCE01F7DD4BE25BE265EC70E0CE0140
:1046B000C5DE40EC67ECCE01EDDD48E866E3CE01F7
:1046C000E9DD45E56AE3CE01E5DD4BE150E061EB74
:1046D00070E0CE01B3DE47E067EBCE01DBDD40E00A
:1046E00061E1CE01D7DD66E970E080E090E00E94F4
:1046F0004D0D40E069E2CE01CDDD64EF71E080E078
:1047000090E00E944D0D6D89CE0154DE0FE311E063
:104710002FEE30E040E050E060E070E0CE010E941B
:10472000E416DF91CF911F910F910895EF92FF92C0
:104730000F93FC014283248303836583F782E6821F
:104740008AE090E0918380830F91FF90EF9008952D
:1047500008950895FC011382128227E833E0318323
:1047600020830895DC01ED91FC910084F185E02D1A
:104770006FEF1994DC01ED91FC910084F185E02D3F
:1047800060E01994DC01ED91FC910284F385E02D49
:1047900040E01994CF93DF93EC0161E0F3DF80ED0B
:1047A00097E00E94720D1C861B861E861D86DF9177
:1047B000CF910895DF92EF92FF920F931F93CF93C3
:1047C000DF93CDB7DEB728970FB6F894DEBF0FBEE4
:1047D000CDBF8C01D62E1D8280E48E8394E19F8311
:1047E00094E5988719828A8380E18B8380E58C83A6
:1047F000F8018781481710F04FEF480FF8019085B6
:10480000E42EF12CFE01EE0DFF1D903121F48430D9
:1048100011F4618101C065816D0D6068C801B2DF6E
:104820006D2D70E0F80174876387F686E58628961B
:104830000FB6F894DEBF0FBECDBFDF91CF911F91B1
:104840000F91FF90EF90DF900895FC016581262F76
:10485000246025836C6096CFCF93DF93EC014230C8
:1048600018F08C8188608C834F8368871C861B8638
:104870001E861D86222329F0413019F48C81846024
:104880008C8364E670E080E090E00E944D0D6C81C6
:1048900064FD31C0E881F9810284F385E02D42E0B6
:1048A00063E0CE01199584E991E10E94720DE881DF
:1048B000F9810284F385E02D42E063E0CE01199591
:1048C00086E990E00E94720DE881F9810284F38507
:1048D000E02D42E063E0CE01199586E990E00E9468
:1048E000720DE881F9810284F385E02D42E062E0F7
:1048F000CE01199513C06062CE0144DF84E991E1D5
:104900000E94720D6C816062CE013CDF86E990E00E
:104910000E94720D6C816062CE0134DF86E990E006
:104920000E94720D6C816062CE012CDF8CE390E0FE
:104930000E94720D84E08D83CE0187DFCE012ADFD5
:1049400082E08E8366E0CE011DDFCE01DF91CF9144
:1049500009CF0F931F93CF93DF93EC01462F60E0B5
:1049600029DF00E010E0888590E00817190764F45B
:10497000E881F9810284F385E02D41E060E2CE0117
:1049800019950F5F1F4FEFCF4D856B85CE01DF91DE
:10499000CF911F910F910ECFCF93DF93EC018F81B9
:1049A000843071F56D30A1F16A3079F41C861B8674
:1049B0008D859E8501969E878D872F8130E0821799
:1049C0009307B4F01E861D8613C0E881F981028426
:1049D000F385E02D41E0CE0119958B859C850196EC
:1049E0009C878B87288530E082179307FCF610C0E0
:1049F0006D85CE01AEDF4D856B85CE01DBDE08C057
:104A0000E881F9810284F385E02D41E0CE0119951A
:104A100081E090E0DF91CF91089521E001C0220F65
:104A20006A95EAF7DC0150962C9350971A965C939E
:104A30004E931997ED91FC910084F185E02D60E093
:104A40001994FC012089222391F081859285009799
:104A500019F4611105C006C0019721F4611102C06B
:104A6000218B01C0118A6189CF0142962FC108951F
:104A70000F931F93CF93DF93EC018C010E5E1F4FBA
:104A80006F85C8010DD1019751F461E0C801F2D0E2
:104A90001C8260E0C8011AD181E090E002C080E091
:104AA00090E0DF91CF911F910F9108958F92AF9277
:104AB000CF92EF920F93CF93DF93CDB7DEB7FC0188
:104AC0006787108A118A1286118681E0982F01C0AB
:104AD000990F4A95EAF7968B982F01C0990F2A955E
:104AE000EAF7978B982F01C0990F0A95EAF7908FF4
:104AF000982F01C0990FEA94EAF7918F982F01C07F
:104B0000990FCA94EAF7928F982F01C0990FAA942F
:104B1000EAF7938F01C0880F8A94EAF7848FDF91B8
:104B2000CF910F91EF90CF90AF908F9008954F92CB
:104B30005F926F927F928F92AF92CF92EF920F938C
:104B40001F93CF93DF9300D0CDB7DEB73C011B8915
:104B50004C885D882B834A836983FCDD87E993E079
:104B6000F30191838083C30142967DD02B814A81DA
:104B70006981C3019BDFA201612FC3010F900F90D8
:104B80000F90DF91CF911F910F91EF90CF90AF9049
:104B90008F907F906F905F904F903FCFFF920F93D9
:104BA0001F93CF93DF93EC01F62E8C010E5E1F4F07
:104BB0006E896F29C8018AD06E8960956F21C801FE
:104BC000DF91CF911F910F91FF9080C020E030E0E6
:104BD00050E060FF05C0FC01E20FF31F718D572B01
:104BE00066952F5F3F4F2430310599F7413011F41E
:104BF000FC01408DFC016189652B642BCFCF0F93A5
:104C00001F93CF93DF93EC01142F062F0F704230C8
:104C100011F440E009C070E084E0759567958A95CD
:104C2000E1F7CE01D3DF412F602FCE01DF91CF918D
:104C30001F910F91CBCF0F931F93CF93DF9300D092
:104C4000CDB7DEB78C012B834A83698311DF2B81BB
:104C50004A816981C8010F900F900F90DF91CF9129
:104C60001F910F91F9CDFC0112828FEF8183108289
:104C700013820895FC018381882331F0611103C000
:104C80008FEF81830895118208958DEC98E0DFD035
:104C90008DEC98E0F8D091E0811190E0892F089593
:104CA000CF93DF93EC016A838DEC98E0C7D06A81E3
:104CB000CE01EBDF8B83882321F08DEC98E031D09F
:104CC00088838B8190E0DF91CF910895CF93DF931C
:104CD000EC018B81882391F08981809586238883DC
:104CE0006A818DEC98E0B3D068818DEC98E068D053
:104CF0008DEC98E0C8D0282F30E002C020E030E0F2
:104D000081E090E0232B11F080E090E0DF91CF91E3
:104D100008958091FD0890E02091FE08821B910982
:104D200008952091FE088091FD08281750F4E22F85
:104D3000F0E0E150F74F808190E02F5F2093FE0874
:104D400008958FEF9FEF0895E091FE088091FD0890
:104D5000E81730F4F0E0E150F74F808190E00895DB
:104D60008FEF9FEF08950895CF92DF92EF92FF9219
:104D70000F931F93CF93DF937C01CB018A01209186
:104D8000D908222389F0EB016B01C40ED51ECC1586
:104D9000DD0561F06991D701ED91FC910190F08101
:104DA000E02DC7011995F3CF642FE3D0C801DF913F
:104DB000CF911F910F91FF90EF90DF90CF900895CA
:104DC000CF93DF931F92CDB7DEB769832091D908C7
:104DD0002223D1F02091DA08203240F021E030E0A7
:104DE000FC013383228380E090E014C08091DB08D3
:104DF000E82FF0E0E452F74F998190838F5F809322
:104E0000DB088093DA0804C061E0CE010196B1D0DE
:104E100081E090E00F90DF91CF910895FC01138223
:104E2000128248EE53E060E070E04483558366836D
:104E3000778387EA93E09183808308951092FE0838
:104E40001092FD081092DB081092DA0821C081E070
:104E50008093D9086093FC081092DB081092DA085E
:104E600008950F93062F21E04091DA086CED78E069
:104E70008091FC082BD01092DB081092DA08109277
:104E8000D9080F91089561E0ECCF8DEC98E0C6CF82
:104E900010928C0981E080938A091092890961E05F
:104EA00084E10E946C0E61E085E10E946C0EE9EBEA
:104EB000F0E080818E7F808380818D7F808388E495
:104EC0008093B80085E48093BC0008950F9341322D
:104ED00008F046C090918C099111FCCF92E090931C
:104EE0008C0900938A099FEF90931F09109264091F
:104EF00040936309FB0165E679E0DB019A2F961B7D
:104F0000941718F491919D93F9CF10928B09909179
:104F10008B09880F892B80938B09809189098130B7
:104F200041F41092890980918B098093BB0085EC34
:104F300001C085EE8093BC00222321F080918C0972
:104F40008230E1F380911F098F3F61F080911F094A
:104F5000803251F080911F09803341F483E007C013
:104F600081E005C080E003C082E001C084E00F91D1
:104F70000895613298F420918C09243089F460936B
:104F80004109FC0183E499E0DC012A2F281B261744
:104F900018F421912D93F9CF80E0089581E00895D0
:104FA00082E0089585ED8093BC008091BC0084FD73
:104FB000FCCF10928C09089585EC8093BC00109270
:104FC0008C0908951F920F920FB60F9211240BB601
:104FD0000F922F933F934F935F936F937F938F9392
:104FE0009F93AF93BF93EF93FF938091B900887F16
:104FF000803609F49CC068F5883209F45BC090F4EF
:10500000803109F454C038F4882309F4F3C088309F
:1050100009F44DC0F2C0883109F44CC0803209F463
:105020005DC0EBC0803409F468C048F4803309F4F3
:1050300055C0883309F0E1C080931F09A7C08035AF
:1050400009F44FC0883509F45DC0883409F0D5C033
:10505000D3C0883909F4C4C0A8F4883709F467C0FC
:1050600038F4883609F463C0803709F460C0C5C0DD
:10507000883809F4B5C0803909F45FC0803809F078
:10508000BCC05BC0803B09F483C038F4803A09F4AB
:1050900066C0883A09F47CC0B0C0803C09F4A4C062
:1050A000883C09F4A1C0883B09F487C0A6C0809160
:1050B0008B0910C09091640980916309981770F56D
:1050C000E091640981E08E0F80936409F0E0EB5970
:1050D000F64F80818093BB0085EC83C080931F09CD
:1050E0008BC0E091640981E08E0F80936409809108
:1050F000BB00F0E0EB59F64F8083909164098091FA
:1051000063096BC0E091640981E08E0F80936409AC
:105110008091BB00F0E0EB59F64F808380918A09C3
:1051200081116AC081E08093890984EA5EC083E0CE
:1051300080938C0910922009CFCF80912009803272
:1051400008F04EC0E091200981E08E0F8093200985
:105150008091BB00F0E0EF5DF64F8083BDCF809182
:105160002009803230F4E0912009F0E0EF5DF64F45
:10517000108218DF6091200970E0E0918509F091BC
:10518000860981E299E019951092200915DF35C052
:1051900084E080938C091092420910924109E091B9
:1051A0008709F0918809199580914109811105C0FD
:1051B00081E08093410910924309E091420981E026
:1051C0008E0F80934209F0E0ED5BF64F8081809373
:1051D000BB009091420980914109981708F47CCF57
:1051E00085E88093BC0009C085EC8093BC001092D8
:1051F0008C0903C010921F09D5DEFF91EF91BF917A
:10520000AF919F918F917F916F915F914F913F915E
:105210002F910F900BBE0F900FBE0F901F901895FF
:105220005058BB27AA270ED075C166D130F06BD17C
:1052300020F031F49F3F11F41EF45BC10EF4E095B1
:10524000E7FB51C1E92F77D180F3BA1762077307E3
:105250008407950718F071F49EF58FC10EF4E09560
:105260000B2EBA2FA02D0B01B90190010C01CA0120
:10527000A0011124FF27591B99F0593F50F4503ECB
:1052800068F11A16F040A22F232F342F4427585FBD
:10529000F3CF469537952795A795F0405395C9F7D5
:1052A0007EF41F16BA0B620B730B840BBAF091508D
:1052B000A1F0FF0FBB1F661F771F881FC2F70EC02C
:1052C000BA0F621F731F841F48F4879577956795FF
:1052D000B795F7959E3F08F0B3CF9395880F08F0E8
:1052E0009927EE0F979587950895D9D008F481E016
:1052F00008950CD00FC107D140F0FED030F021F45A
:105300005F3F19F0F0C0511139C1F3C014D198F3C7
:105310009923C9F35523B1F3951B550BBB27AA2736
:1053200062177307840738F09F5F5F4F220F331FA8
:10533000441FAA1FA9F333D00E2E3AF0E0E830D074
:1053400091505040E695001CCAF729D0FE2F27D077
:10535000660F771F881FBB1F261737074807AB0745
:10536000B0E809F0BB0B802DBF01FF2793585F4FBA
:105370002AF09E3F510568F0B6C000C15F3FECF3D4
:10538000983EDCF3869577956795B795F7959F5F7F
:10539000C9F7880F911D9695879597F90895E1E0D3
:1053A000660F771F881FBB1F621773078407BA0732
:1053B00020F0621B730B840BBA0BEE1F88F7E0958D
:1053C000089504D06894B111D9C00895BCD088F074
:1053D0009F5790F0B92F9927B751A0F0D1F0660FE1
:1053E000771F881F991F1AF0BA95C9F712C0B130FC
:1053F00081F0C3D0B1E00895C0C0672F782F88270F
:10540000B85F39F0B93FCCF3869577956795B3953A
:10541000D9F73EF490958095709561957F4F8F4FA9
:105420009F4F0895E89409C097FB3EF490958095AE
:10543000709561957F4F8F4F9F4F9923A9F0F92F5A
:1054400096E9BB279395F695879577956795B795D8
:10545000F111F8CFFAF4BB0F11F460FF1BC06F5FBE
:105460007F4F8F4F9F4F16C0882311F096E911C0D0
:10547000772321F09EE8872F762F05C0662371F0F1
:1054800096E8862F70E060E02AF09A95660F771F05
:10549000881FDAF7880F9695879597F90895990FE1
:1054A0000008550FAA0BE0E8FEEF16161706E807EE
:1054B000F907C0F012161306E407F50798F0621B0F
:1054C000730B840B950B39F40A2661F0232B242BE4
:1054D000252B21F408950A2609F4A140A6958FEF03
:1054E000811D811D089597F99F6780E870E060E055
:1054F00008959FEF80EC089500240A94161617066D
:1055000018060906089500240A94121613061406B4
:1055100005060895092E0394000C11F4882352F017
:10552000BB0F40F4BF2B11F460FF04C06F5F7F4FCF
:105530008F4F9F4F089557FD9058440F551F59F0B6
:105540005F3F71F04795880F97FB991F61F09F3F70
:1055500079F087950895121613061406551FF2CF99
:105560004695F1DF08C0161617061806991FF1CFE9
:1055700086957105610508940895E894BB27662710
:105580007727CB0197F908958ADF08F48FEF089504
:105590000BD0C0CFB1DF28F0B6DF18F0952309F0AB
:1055A000A2CFA7CF1124EACFC6DFA0F3959FD1F3F6
:1055B000950F50E0551F629FF001729FBB27F00DC1
:1055C000B11D639FAA27F00DB11DAA1F649F662716
:1055D000B00DA11D661F829F2227B00DA11D621F65
:1055E000739FB00DA11D621F839FA00D611D221F1F
:1055F000749F3327A00D611D231F849F600D211D03
:10560000822F762F6A2F11249F5750408AF0E1F0A5
:1056100088234AF0EE0FFF1FBB1F661F771F881FEE
:1056200091505040A9F79E3F510570F05CCFA6CF36
:105630005F3FECF3983EDCF3869577956795B795D9
:10564000F795E7959F5FC1F7FE2B880F911D969503
:10565000879597F9089523DF880B990B0895A1E2A8
:105660001A2EAA1BBB1BFD010DC0AA1FBB1FEE1FDC
:10567000FF1FA217B307E407F50720F0A21BB30B27
:10568000E40BF50B661F771F881F991F1A9469F7A3
:1056900060957095809590959B01AC01BD01CF01FF
:1056A0000895EE0FFF1F0590F491E02D199405D099
:1056B000332312F48A1B9B0B10C0A29FB001B39F2F
:1056C000C001A39F700D811D1124911DB29F700D0B
:1056D000811D1124911D0895F0DFB7FF0895821BED
:1056E000930B08950790F691E02D199481E090E0D6
:0856F000F89400C0F894FFCF0C
:1056F8000100000048656C6C6F20576F726C642164
:105708000047726F6F70004920696D706C6F726529
:1057180020746865652C006D7920666F6F6E7469FA
:105728006E67207475726C696E6764726F6D6573ED
:105738002E00416E6420686F6F7074696F75736CAA
:1057480079206472616E676C65206D650077697495
:1057580068206372696E6B6C792062696E646C652F
:10576800777572646C65732C004F722049207769D5
:105778006C6C2072656E64207468656500696E20C3
:1057880074686520676F626265727761727473000E
:1057980077697468206D7920626C7572676C6563CF
:1057A80072756E6368656F6E2C0073656520696637
:1057B800204920646F6E2774210057616974696EEF
:1057C8006720666F722041726475696E6F20536539
:1057D8007269616C204D6F6E69746F722E2E2E0087
:1057E80048656C6C6F2C20776F726C642100484997
:1057F80021596F75724475696E6F2E636F6D005510
:1058080073652053657269616C204D6F6E00547921
:10581800706520746F20646973706C6179006572BB
:1058280061736500000000005808940AA407C107C6
:10583800AE0737080D0A006E616E00696E66006F6C
:10584800766600000000002A11940AD30CA20EA864
:105858000FBF0F590FD50F0A102810000000002A9B
:1058680011940A0712A20EAF1F5F1F590FFF1F7670
:1058780020281000000000CC24940A2C24A823A976
:1058880023D30C00000000CC24940A1B260D2521EC
:1058980025FF2500000000E026B42689269126A4CD
:0458A80026B32600FD
:00000001FF
